:1000000008040020D9040000E5040000E504000015
:10001000E5040000E5040000E50400000000000025
:10002000000000000000000000000000E5040000E7
:10003000E504000000000000E5040000E504000005
:10004000E5040000E5040000E5040000E50400000C
:10005000E5040000E5040000E5040000E5040000FC
:10006000E5040000E5040000000000004B02000071
:10007000E5040000E5040000E5040000E5040000DC
:10008000E50400000F020000E5040000E5040000A4
:10009000E5040000E5040000E5040000E5040000BC
:1000A000E5040000E5040000E5040000E5040000AC
:1000B000E5040000E5040000E5040000E50400009C
:1000C000E5040000E5040000E5040000E50400008C
:1000D000E5040000E5040000E50400000000000065
:1000E000012110F01F0291405E4A40B2400942F8DF
:1000F0002010704700215C4A11605B490968814209
:10010000FBD3704780B500220221002000F0BEF82A
:1001100001BD80B5772000F0EFF802230122002115
:10012000022000F0C3F8072300220721072000F077
:10013000CDF801BD80B54FF410414C4800F0E6F811
:10014000A4214A4800F0E5F80021484800F0E4F80E
:100150000021474800F0DAF8EB21454800F0D9F8D3
:100160000021434800F0D8F80021424800F0CEF8C2
:10017000FF21404800F0CDF800213E4800F0CCF8C7
:1001800001BD80B5082303224FF496613A4800F080
:10019000CFF800220121384800F020F90321364829
:1001A00000F021F901BD80B57D215FF0804000F0B5
:1001B0002FF99823012220215FF0804000F018F9E8
:1001C00001BD80B5FFF79EFFFFF7A3FFFFF7B2FF6A
:1001D000FFF7E9FFFFF7D5FF0B20FFF781FF1120A5
:1001E000FFF77EFF01BD80B5FFF7EBFF20211F4821
:1001F00000F098F84FF47A70FFF77CFF20211B483D
:1002000000F08DF84FF47A70FFF774FFEEE780B5D9
:10021000194800F0EBF81C4908701B48007810F0F2
:100220000700022802D101201449087016480078FE
:1002300010F00700042807D10F4800F0CDF811494D
:10024000087001200E49087001BD80B501215FF0E2
:10025000804000F0E0F804480068401C0249086053
:1002600001BD000000E100E000000020006000404F
:1002700030600040606000400050004004000020FA
:10028000050000200700002006000020064B1B8808
:100290009BB213F0200353F0400303430B4313437B
:1002A00001480380012070478825004010F00700B6
:1002B00011F0030150EAC10013F0070150EA4110A8
:1002C0000F4908800F4802800120704710B410F0D9
:1002D000070454EAC00411F0070054EA801412F035
:1002E000070054EA402413F0070054EA003406489B
:1002F0000480012010BC70470149888501207047A7
:1003000000200040442400400420004001800120DF
:100310007047017101207047017201207047017719
:10032000007F704780F8201090F820007047000090
:1003300070B4264C2488A4B214F460656D12002DAC
:100340000BD0022D0DD00AD3042D0ED00BD3062DC9
:100350000FD00CD3072D0ED00FE001250DE00225A4
:100360000BE0042509E0082507E0102505E020251D
:1003700003E0402501E08025FFE7154C2488A4B266
:10038000E40700D56D00134C6E0194FBF6F494FB6A
:10039000F1F404854FF400666D0196FBF5F50D4E02
:1003A000754395FBF4F494FBF1F1B1F5006151F460
:1003B000084181840021017113F03C0112F0030215
:1003C00011430173007D70BC7047000004200040A1
:1003D000442400400024F40000787047002A00D034
:1003E0000174007E7047017101207047007A7047E8
:1003F00010B4848B640601D5002007E0048914F44E
:1004000070640C4314431C430481012010BC7047EA
:1004100001800120704781810120704719E050F868
:10042000041BCB0744BFA9F101035918121F002375
:10043000042A41F8043BF9D25FEA827C0B4604D5DA
:100440004FF0000CA1F800C09B1CD10744BF002155
:10045000197050F8042B002AE1D1704710B50749F4
:1004600079441831064C7C44163404E00A68081DAF
:10047000511888470146A142F8D110BD080000007C
:100480001400000099FFFFFF08000000000000209A
:100490000000000000F00BF8002801D0FFF7DEFF9D
:1004A0000020C046C046FFF79EFE00F002F8012083
:1004B000704700F001B800000746384600F002F827
:1004C000FBE7000080B5C046C046024A1100182074
:1004D000ABBEFBE726000200C046C046C046C04691
:0804E000FFF7D8FFFFF7FEBF94
:04000005000004D91A
:00000001FF
