:1000000048040020D5110000011200000112000078
:1000100001120000011200000112000000000000A7
:1000200000000000000000000000000001120000BD
:100030000112000000000000011200000112000087
:100040000112000001120000011200000112000064
:100050000112000001120000011200000112000054
:100060000112000001120000000000000112000057
:100070000112000001120000011200000112000034
:1000800001120000950C0000011200000112000096
:100090000112000001120000011200000112000014
:1000A0000112000001120000011200000112000004
:1000B00001120000011200000112000001120000F4
:1000C00001120000011200000112000001120000E4
:1000D00001120000011200000112000000000000E7
:1000E00001B400200098016001B07047002101E0D8
:1000F000303A51180278401CD2B2002A02D1C9B25B
:10010000080017E00901D2B2B2F130030A2BEFD395
:10011000D2B2B2F14103062B02D2373A5118E9E7C5
:10012000D2B2B2F16103062B02D2573A5118E1E77D
:100130005FF0FF30704738B50400002503E0285D0C
:1001400000F03AF86D1C00F01EF82855285D0A28CA
:1001500002D0285D0D2809D10D2000F02DF80A20CD
:1001600000F02AF800202855012032BD285D7F28A4
:1001700002D0285D0828E2D1012DE4DB6AA000F05E
:1001800010F86D1EDFE70020DFF8BC140870DFF800
:10019000B80400780028FAD0DFF8B0040078C0B2C4
:1001A000704710B5040003E0207800F005F8641CE7
:1001B00020780028F8D110BD10B50400E4B20A2C54
:1001C0000DD10020DFF8881408700A21DFF88404BC
:1001D00000F0F0FADFF8780400780028FAD0002068
:1001E000DFF86C140870E4B22100DFF8680400F056
:1001F000E1FADFF85C0400780028FAD010BD0EB4F4
:1002000000B5C0B041AA0100684600F006F8684693
:10021000FFF7C7FF40B05DF810FBF8B504000F0012
:1002200015005FF0FF36200001E07F1E7F1C39784B
:10023000002929D03978252903D039780170401C4C
:10024000F4E700237F1C10223978252904D058298F
:1002500006D0782906D00DE025210170401CE5E785
:1002600053F04003102229682D1D0093330000F045
:100270000FF8DBE725210170401C39780029D4D024
:1002800039780170401CD1E700210170001BF2BDDC
:100290002DE9F24392B0040016001D00DFF8B88388
:1002A00008271A98400601D5DFF8B083AD1E5FF02D
:1002B00000091298002811D13020694609F8010080
:1002C00019F101090DE0310012A800F06DF810F8E5
:1002D0000800694609F8010019F10109129800287F
:1002E000F1D1B7EB090000280BD03020694609F89E
:1002F000010019F10109F4E7684619F800002070BF
:10030000641C4846B0F101090128F5DA2800451EB1
:10031000012803DB20202070641CF7E7200013B0C5
:10032000BDE8F0830000000008200800F0B40025BC
:1003300000241C6000241460002933D0884201D2BC
:1003400018602FE0814202D1012010602AE02024B1
:1003500007E0C60F1D6856EA45051D600500400010
:10036000641E1E688E42F4D328001D686D081D604F
:10037000641C002514E0C60F1F6856EA47061E607D
:100380001E68761AF70F97F001074000D2F800C0F8
:1003900057EA4C0CC2F800C0002F00D01E606D1C44
:1003A000A542E8D3F0BC70471CB504006B4601AA17
:1003B0002068FFF7BBFF01982060009816BD70B55C
:1003C00082B0402100218DF8001000218DF801102D
:1003D00020210024C9B200F001FA0400A07800F046
:1003E00008FA0100C9B2782919D1002504E02819BA
:1003F000C078694668546D1C082D06DA2819C07843
:100400002028F4D1002069466854684600F02EF98F
:1004100006002819C11C684600F0F2F918E0002512
:1004200004E028194078694668546D1C082D06DAE6
:10043000281940782028F4D100206946685468467D
:1004400000F014F906002819411C684600F0D8F99C
:100450002021C9B2684600F0C1F90400A07800F07C
:10046000C8F90100C9B278291BD1002505E0281977
:10047000C0780DF1010168546D1C082D0BDA2819A4
:10048000C078202803D02819C0780028EFD1002098
:100490000DF1010168540DF1010000F0E7F80100D1
:1004A0001AE0002505E0281940780DF10101685493
:1004B0006D1C082D0BDA28194078202803D0281944
:1004C00040780028EFD100200DF1010168540DF1B2
:1004D000010000F0B7F90100300000F090F873BDA2
:1004E00070B582B000218DF8001000218DF8011048
:1004F00020210024C9B200F071F90400A07800F0B6
:1005000078F90100C9B2782919D1002504E0281929
:10051000C078694668546D1C082D06DA2819C07821
:100520002028F4D1002069466854684600F09EF8FF
:1005300006002819C11C684600F062F918E0002581
:1005400004E028194078694668546D1C082D06DAC5
:10055000281940782028F4D100206946685468465C
:1005600000F084F806002819411C684600F048F99C
:100570002021C9B2684600F031F90400A07800F0EB
:1005800038F90100C9B278291AD1002505E02819E7
:10059000C0780DF1010168546D1C082D0BDA281983
:1005A000C078202803D02819C0780028EFD1002077
:1005B0000DF1010168540DF1010000F057F819E048
:1005C000002505E0281940780DF1010168546D1CE3
:1005D000082D0BDA28194078202803D028194078F4
:1005E0000028EFD100200DF1010168540DF1010048
:1005F00000F028F901003000FFF772FD73BD70B5FF
:1006000004000D000026AD08002603E01448FFF7A3
:10061000F6FD761CAE4210D216F0070F03D1210072
:100620001048FFF7ECFD2168241D16F0070007288D
:10063000ECD10D48FFF7E3FDEBE702A0FFF7DFFD8C
:1006400070BD00000A0000004500002046000020A8
:100650004400002000500040FC1000002411000065
:10066000F8110000E8110000F011000030B589B069
:1006700004006846202100F0E9F8200000F0EAF8C4
:10068000092800D30820002108E06A46431E5B1AAF
:100690002578303D42F82350641C491C81420ED21B
:1006A000227852F0200222702278412AEDDB6A463D
:1006B000431E5B1A2578573D42F82350ECE7002093
:1006C00007995FF0805202FB010006995FF080728B
:1006D00002FB010005995FF4801202FB01000499FE
:1006E0005FF4803202FB010003994FF4805202FB59
:1006F000010002994FF4807202FB0100019910EB96
:1007000001100099081809B030BD000070B4264CE3
:100710002488A4B214F460656D12002D0BD0022D54
:100720000DD00AD3042D0ED00BD3062D0FD00CD331
:10073000072D0ED00FE001250DE002250BE004256A
:1007400009E0082507E0102505E0202503E0402505
:1007500001E08025FFE7154C2488A4B2E40700D50A
:100760006D00134C6E0194FBF6F494FBF1F40485D8
:100770004FF400666D0196FBF5F50D4E754395FB44
:10078000F4F494FBF1F1B1F5006151F40841818476
:100790000021017113F03C0112F0030211430173B7
:1007A000007D70BC704700000420004044240040DD
:1007B0000024F400027D920602D50170012000E0C1
:1007C0000020704700787047002A00D00174007E36
:1007D0007047017101207047007A70470278C9B2F2
:1007E0008A421AB11CBF10F8012FF9E718BF002088
:1007F0007047A0F141011A2938BF2030704700002E
:100800005FEA000C830706D011F8013B00F8013BBA
:10081000B3B18307F8D10A68B2F1013323EA0203C6
:1008200013F0803F02BF40F8042B51F8042FF3E788
:1008300011F8013B00F8013B13B111F8013BF9E756
:10084000604670470A22002100F0C4B8002200F080
:10085000EBB8000000F10103810704D010F8011B80
:1008600089B18107FAD10268B2F10131914311F0E7
:10087000803F04BF50F8042FF6E710F8011B11B1B8
:1008800010F8011BFBE7C01A704700002DE9F04F7C
:1008900085B004461E000D4690461CBF0020306007
:1008A000A14601E009F1010999F80000A0F1090150
:1008B0000529F7D32028F5D02D2816BF2B2819F8A5
:1008C000017B2B27B8F1000F57D4B8F1010F54D09A
:1008D000B8F1250F51DAB8F1010F0DDBB8F1100FA7
:1008E00004BF99F80000302802BF99F8010040F0D9
:1008F0002000782814D10EE099F80000302818BFA5
:100900004FF00A080CD199F8010040F02000782837
:1009100004D14FF0100809F1020901E04FF0080876
:10092000CDF8109001E009F1010999F80000302894
:10093000F9D00FF2A40B4FF0000ACDF80C908DF80F
:1009400008B00AE09DF80810CDF804A0401AC0B223
:10095000009008FB0A0A09F1010999F80010A1F1B9
:1009600041001A2838BF20314246584600F076F838
:100970000028E7D10498484503D105B12C60002038
:1009800025E00FF27C01039818F80110A9EB000094
:10099000401A14D4012808DA0098BAEB000004D3F6
:1009A0000199B0FBF8F0884209D000F083F82221C9
:1009B00001600EB1012030604FF0FF3A03E02D2FAF
:1009C00008BFCAF1000A0DB1C5F80090504605B045
:1009D000BDE8F08F002359E73031323334353637F4
:1009E00038396162636465666768696A6B6C6D6EED
:1009F0006F707172737475767778797A0000000081
:100A000000002115110E0D0C0B0B0A0A090909092A
:100A1000090808080808080807070707070707075D
:100A2000070707070700000000B500BF1300964640
:100A30009446103928BFA0E80C50FAD85FEA417CF0
:100A400028BF0CC048BF40F8042BC90728BF20F8B6
:100A5000022B48BF00F8012B00BD0000C9B283077C
:100A600006D0521E22D310F8013B9942F7D11FE065
:100A7000083A13D302F1040241EA012141EA01419B
:100A800050F8043B121F21BF4B40A3F1013C2CEA5C
:100A9000030C1CF0803FF3D0C9B2001F083210F8DD
:100AA000013B521E28BF91EA030FF8D818BF01205E
:100AB000401E7047014800F003B80000000000200D
:100AC00070470000012110F01F029140824A40B29D
:100AD000400942F82010704780B58048008850F4E3
:100AE00010407E490880002303224FF416517C48B1
:100AF000FFF70CFE002201217948FFF765FE3F2138
:100B00007748FFF766FE01BD80B500207749088071
:100B100000220221002000F00FF9772000F042F9B6
:100B2000002300220021002000F016F907230022F4
:100B30000721072000F020F94FF41541674800F025
:100B40003BF98021654800F03AF90021634800F044
:100B500039F90021664800F02FF9EF21644800F0D0
:100B60002EF90021624800F02DF90021614800F0C3
:100B700023F9FF215F4800F022F900215D4800F0D1
:100B800021F9FFF7A9FF1120FFF79CFF01BD80B5F8
:100B90005948FFF734FB5948FFF731FB5848FFF736
:100BA0002EFB5848FFF72BFB5448FFF728FB56480D
:100BB000FFF725FB5548FFF722FB5548FFF71FFBC2
:100BC0004E48FFF71CFB5348FFF719FB4B48FFF754
:100BD00016FB4948FFF713FB4F48FFF710FB4F4840
:100BE000FFF70DFB4E48FFF70AFB4E48FFF707FBE8
:100BF00001BD80B5FFF788FF02E04B48FFF7FFFA21
:100C00004A48FFF7FCFA3848FFF795FA364800786B
:100C1000C0B26D2832D0C0B20A2801D172202DE0B6
:100C2000C0B2B0F141011A2903D2C0B210F12001C3
:100C300005E0C0B2672801D1012100E000210029B0
:100C400004D02948FFF7BBFB722017E0C0B2B0F117
:100C500041011A2902D2C0B2203005E0C0B2732887
:100C600001D1012000E00020002804D01E48FFF739
:100C700037FC722002E01C48FFF738FA00211A4ABC
:100C80001170C0B20128B8D06D2802D1FFF77FFFE4
:100C9000B6E7B5E780B500208DF800001048FFF7F3
:100CA0009BFD8DF800009DF8000010F00700022861
:100CB00002D101200B4908709DF8000010F00700D8
:100CC000042807D10648FFF77DFD19490870012067
:100CD0001849087001BD000000E100E0006000401C
:100CE00000500040440000200400002088250040FF
:100CF0003060004060600040CC0D00000C0E000031
:100D00004C0E00008C0E0000CC0E00000C0F0000FA
:100D10004C0F00008C0F00008C100000CC0F000066
:100D20000C1000004C100000C8110000E011000081
:100D30004600002045000020064B1B889BB213F0A4
:100D4000200353F0400303430B4313430148038044
:100D5000012070478825004010F0070011F00301C2
:100D600050EAC10013F0070150EA41100F49088012
:100D70000F4802800120704710B410F0070454EAB5
:100D8000C00411F0070054EA801412F0070054EA7E
:100D9000402413F0070054EA003406480480012080
:100DA00010BC704701498885012070470020004031
:100DB000442400400420004001800120704701715C
:100DC0000120704701720120704700002A2A2A2A58
:100DD0002A2A2A2A2A2A2A2A2A2A2A2A2A2A2A2A73
:100DE0002A2A2A2A2A2A2A2A2A2A2A2A2A2A2A2A63
:100DF0002A2A2A2A2A2A2A2A2A2A2A2A2A2A2A2A53
:100E00002A2A2A2A2A2A2A2A2A0A00002A2A2020CA
:100E100020202020202020202020202020202020D2
:100E200020202020202020202020202020202020C2
:100E300020202020202020202020202020202020B2
:100E40002020202020202020200A00002A2A2020E4
:100E5000204E6F7465203A20202020202020202062
:100E60002020202020202020202020202020202082
:100E70002020202020202020202020202020202072
:100E80002020202020202020200A00002A2A2020A4
:100E900020414475434D3336302045564D20626F16
:100EA00061726420546573742050726F6772616D53
:100EB0002020202020202020202020202020202032
:100EC000202020202020200A000000002A2A20556F
:100ED00073616765203A20202020202020202020D8
:100EE0002020202020202020202020202020202002
:100EF00020202020202020202020202020202020F2
:100F00002020202020202020200A00002A2A204CF7
:100F10006F76654A6F6E6753755D736574206164A3
:100F200064722076616C2020202020202020202048
:100F300020202020202020202020202020202020B1
:100F40002020202020202020200A00002A2A204CB7
:100F50006F76654A6F6E6753755D6765742061646F
:100F600064722020202020202020202020202020EB
:100F70002020202020202020202020202020202071
:100F80002020202020202020200A00002A2A2020A3
:100F90002020202020202020202020202020202051
:100FA0002020202020323031332C2031302C2032B0
:100FB0003320204279204C696D204A6F6E672053A0
:100FC0007520202020202020200A00002A2A20200E
:100FD0002020202020202020202020202020202011
:100FE0002020202020202020202020202020202001
:100FF00020202020202020202020202020202020F1
:1010000020202020202020202A0A0000202020202C
:10101000202020202020202020A2D1206D2E202042
:101020004D61696E204D656E7520646973706C61E9
:101030007920202020202020202020202020202057
:101040002020202020202020200A00002A2A2A2ACE
:101050002A2A2A2A2A2A2A2A2A2A2A2A2A2A2A2AF0
:101060002A2A2A2A2A2A2A2A2A2A2A2A2A2A2A2AE0
:101070002A2A2A2A2A2A2A2A2A2A2A2A2A2A2A2AD0
:101080002A2A2A2A2A2A2A0A0A0000002A2020209C
:101090002020202020202020312E202050574D209D
:1010A0005465737420202020202020202020202020
:1010B0002020202020202020202020202020202030
:1010C000202A0A0030B5016842688468091801EBDB
:1010D0005203D20748BF4C440C30994200D130BD76
:1010E00011F9012B11F8015B002A04F8015B02D50C
:1010F000521CF9D1F1E7521EF4D5EEE7303132330C
:101100003435363738396162636465666768696AA1
:101110006B6C6D6E6F707172737475767778797AA7
:10112000000000003031323334353637383941422F
:10113000434445464748494A4B4C4D4E4F50515207
:10114000535455565758595A0000000010B50749D6
:1011500079441831064C7C44163404E00A68081DB2
:10116000511888470146A142F8D110BD080000007F
:101170001400000051FFFFFF8C000000040000007D
:101180000000002000F00BF8002801D0FFF7DEFF80
:101190000020C046C046FFF72CFD00F002F80120F9
:1011A000704700F001B800000746384600F002F82A
:1011B000FBE7000080B5C046C046024A1100182077
:1011C000ABBEFBE72600020050574D2054657374F8
:1011D0000A000000C046C046C046C046FFF7D2FF26
:1011E000536869636F5D0000307825782020200007
:1011F000307825780A00000030782578200000003B
:06120000FFF7FEBFB9007C
:04000005000011D511
:00000001FF
