:10000000880400204D050000590500005905000036
:1000100059050000590500005905000000000000C6
:100020000000000000000000000000005905000072
:1000300059050000000000005905000059050000A6
:100040005905000059050000590500005905000038
:100050005905000059050000590500005905000028
:100060005905000059050000000000005905000076
:100070005905000059050000590500005905000008
:1000800059050000730200005905000059050000E1
:1000900059050000590500005905000059050000E8
:1000A00059050000590500005905000059050000D8
:1000B00059050000590500005905000059050000C8
:1000C00059050000590500005905000059050000B8
:1000D0005905000059050000590500000000000006
:1000E000012110F01F029140724A40B2400942F8CB
:1000F0002010704780B500206F490880002202213F
:10010000002000F0EFF801BD80B5772000F020F965
:10011000002301220021022000F0F4F8072300222E
:100120000721072000F0FEF801BD80B54FF415410E
:10013000624800F017F98021604800F016F980212C
:100140005E4800F015F900215D4800F00BF9EF2141
:100150005B4800F00AF90021594800F009F9002134
:10016000584800F0FFF8FF21564800F0FEF8002143
:10017000544800F0FDF801BD80B55048008850F4A7
:1001800010404E490880082303224FF496614E48E0
:1001900000F0F2F8002201214B4800F04BF9032156
:1001A000494800F04CF901BD80B5FFF7A3FFFFF708
:1001B000ABFFFFF7BAFFFFF7DFFF1120FFF790FF5C
:1001C0000E20FFF78DFF01BD80B500213F4A117061
:1001D000C0B201003C4800F023F93C4800780028F8
:1001E000FBD001BD70B504000025200000F02CF903
:1001F0000500002604E0B6B2305DFFF7E5FF761C8F
:10020000B6B2ADB2AE42F6D370BD00203049097827
:100210000029FBD02F4909782F4AC0B28154401CD5
:1002200000212B4A11702B490978002907D0294950
:1002300009780D2903D0274909780A29E6D12648EB
:10024000704780B5FFF7B0FF2448FFF7CBFF204889
:1002500000780028FBD0FFF7D8FFFFF7C3FF14A0FA
:10026000FFF7C0FF1D48FFF7BDFF002018490870C9
:10027000EDE780B5144800F0E5F819490870184812
:10028000007810F00700022802D101200F49087001
:100290001348007810F00700042807D10A4800F03E
:1002A000C7F80C49087001200949087001BD000019
:1002B0000D0A000000E100E08825004000600040D9
:1002C000306000406060004000500040800000202E
:1002D0008100002083000020000000203C05000079
:1002E00082000020064B1B889BB213F0200353F0C2
:1002F000400303430B43134301480380012070472D
:100300008825004010F0070011F0030150EAC100F9
:1003100013F0070150EA41100F4908800F4802808E
:100320000120704710B410F0070454EAC00411F023
:10033000070054EA801412F0070054EA402413F036
:10034000070054EA003406480480012010BC7047BE
:100350000149888501207047002000404424004066
:100360000420004001800120704701710120704786
:10037000017201207047000070B4264C2488A4B29A
:1003800014F460656D12002D0BD0022D0DD00AD330
:10039000042D0ED00BD3062D0FD00CD3072D0ED06D
:1003A0000FE001250DE002250BE0042509E00825FA
:1003B00007E0102505E0202503E0402501E0802529
:1003C000FFE7154C2488A4B2E40700D56D00134C58
:1003D0006E0194FBF6F494FBF1F404854FF400668F
:1003E0006D0196FBF5F50D4E754395FBF4F494FB0A
:1003F000F1F1B1F5006151F40841818400210171EE
:1004000013F03C0112F0030211430173007D70BC34
:100410007047000004200040442400400024F40001
:10042000027D920602D50170012000E00020704795
:1004300000787047002A00D00174007E7047017177
:1004400001207047007A704700F10103810704D052
:1004500010F8011B89B18107FAD10268B2F10131AC
:10046000914311F0803F04BF50F8042FF6E710F8D5
:10047000011B11B110F8011BFBE7C01A704719E00E
:1004800050F8041BCB0744BFA9F101035918121FF0
:100490000023042A41F8043BF9D25FEA827C0B4630
:1004A00004D54FF0000CA1F800C09B1CD10744BF3D
:1004B0000021197050F8042B002AE1D17047000088
:1004C00010B5074979441831064C7C44163404E0D1
:1004D0000A68081D511888470146A142F8D110BD8D
:1004E000080000001400000097FFFFFF84000000D8
:1004F000000000200000000000F00BF8002801D0F0
:10050000FFF7DEFF0020C046C046FFF79AFE00F06E
:1005100002F80120704700F001B800000746384695
:1005200000F002F8FBE7000080B5C046C046024A72
:1005300011001820ABBEFBE726000200496E707563
:100540007420546578740D0A00000000C046C0464F
:0C055000C046C046FFF7D0FFFFF7FEBF1B
:040000050000054DA5
:00000001FF
