:1000000008040020D5050000E1050000E10500001E
:10001000E1050000E1050000E1050000000000002E
:10002000000000000000000000000000E1050000EA
:10003000E105000000000000E1050000E10500000E
:10004000E1050000E1050000E1050000E105000018
:10005000E1050000E1050000E1050000E105000008
:10006000E1050000E105000000000000E1050000DE
:10007000E1050000E1050000E1050000E1050000E8
:10008000E10500009B020000E1050000E105000021
:10009000E1050000E1050000E1050000E1050000C8
:1000A000E1050000E1050000E1050000E1050000B8
:1000B000E1050000E1050000E1050000E1050000A8
:1000C000E1050000E1050000E1050000E105000098
:1000D000E1050000E1050000E1050000000000006E
:1000E000012110F01F0291407B4A40B2400942F8C2
:1000F0002010704780B50020784908800022022136
:10010000002000F0FFF801BD80B5772000F030F945
:10011000002300220021002000F004F90723002220
:100120000721072000F00EF901BD80B54FF41541FD
:100130006B4800F027F98021694800F026F900217A
:10014000674800F025F90021664800F01BF9EF210F
:10015000644800F01AF90021624800F019F9002102
:10016000614800F00FF9FF215F4800F00EF900210F
:100170005D4800F00DF901BD80B55948008850F484
:10018000104057490880002303224FF41651574866
:1001900000F002F900220121544800F05BF93F21F0
:1001A000524800F05CF901BD80B5FFF7A3FFFFF7EF
:1001B000ABFFFFF7BAFFFFF7DFFF1120FFF790FF5C
:1001C0000E20FFF78DFF01BD80B50021484A117058
:1001D000C0B20100454800F033F9454800780028D6
:1001E000FBD001BD70B504000025200000F03CF9F3
:1001F0000500002604E0B6B2305DFFF7E5FF761C8F
:10020000B6B2ADB2AE42F6D370BD10B5A0B0002408
:100210006846802100F044F9364800780028FBD079
:10022000354800786946E4B26054641C00203149C6
:10023000087031480078002807D02F4800780D2832
:1002400003D02D4800780A28E6D1684620B010BDBA
:1002500080B5FFF7A9FF2948FFF7C4FF25480078BC
:100260000028FBD0FFF7D1FFFFF7BCFF19A0FFF775
:10027000B9FF2248FFF7B6FF00201E490870EDE7DE
:1002800010B50024194800F0E3F81B49087000E09D
:10029000641CB4F57A7FFBD310BD80B5134800F021
:1002A000E1F8174908701648007810F00700022896
:1002B00002D101200E4908701148007810F00700A3
:1002C000042804D1FFF7DCFF01200A49087001BDB2
:1002D000000000000D0A000000E100E08825004059
:1002E000006000403060004060600040005000400E
:1002F000000000200100002003000020C4050000D1
:1003000002000020064B1B889BB213F0200353F021
:10031000400303430B43134301480380012070470C
:100320008825004010F0070011F0030150EAC100D9
:1003300013F0070150EA41100F4908800F4802806E
:100340000120704710B410F0070454EAC00411F003
:10035000070054EA801412F0070054EA402413F016
:10036000070054EA003406480480012010BC70479E
:100370000149888501207047002000404424004046
:100380000420004001800120704701710120704766
:10039000017201207047000070B4264C2488A4B27A
:1003A00014F460656D12002D0BD0022D0DD00AD310
:1003B000042D0ED00BD3062D0FD00CD3072D0ED04D
:1003C0000FE001250DE002250BE0042509E00825DA
:1003D00007E0102505E0202503E0402501E0802509
:1003E000FFE7154C2488A4B2E40700D56D00134C38
:1003F0006E0194FBF6F494FBF1F404854FF400666F
:100400006D0196FBF5F50D4E754395FBF4F494FBE9
:10041000F1F1B1F5006151F40841818400210171CD
:1004200013F03C0112F0030211430173007D70BC14
:100430007047000004200040442400400024F400E1
:10044000027D920602D50170012000E00020704775
:1004500000787047002A00D00174007E7047017157
:1004600001207047007A704700F10103810704D032
:1004700010F8011B89B18107FAD10268B2F101318C
:10048000914311F0803F04BF50F8042FF6E710F8B5
:10049000011B11B110F8011BFBE7C01A70470000E7
:1004A000002200F001B80000401810F0030308D04B
:1004B000C91A1FD3DB0748BF00F8012D28BF20F859
:1004C000022D130030B414461546103928BF20E918
:1004D0003C00FAD8490728BF20E90C0048BF40F883
:1004E000042D890028BF20F8022D48BF00F8012DF7
:1004F00030BC7047C91818BF00F8012DCB0728BFC2
:1005000000F8012D704719E050F8041BCB0744BFD9
:10051000A9F101035918121F0023042A41F8043BD2
:10052000F9D25FEA827C0B4604D54FF0000CA1F8AB
:1005300000C09B1CD10744BF0021197050F8042B48
:10054000002AE1D17047000010B5074979441831FD
:10055000064C7C44163404E00A68081D511888478C
:100560000146A142F8D110BD0800000014000000AF
:1005700097FFFFFF040000000000002000000000C3
:1005800000F00BF8002801D0FFF7DEFF0020C04686
:10059000C046FFF75DFE00F002F80120704700F052
:1005A00001B800000746384600F002F8FBE70000FB
:1005B00080B5C046C046024A11001820ABBEFBE71A
:1005C00026000200496E70757420546578740D0A17
:1005D00000000000C046C046C046C046FFF7D0FF3E
:0405E000FFF7FEBF64
:04000005000005D51D
:00000001FF
