:1000000008040020B9050000C5050000C505000072
:10001000C5050000C5050000C50500000000000082
:10002000000000000000000000000000C505000006
:10003000C505000000000000C5050000C505000062
:10004000C5050000C5050000C5050000C505000088
:10005000C5050000C5050000C5050000C505000078
:10006000C5050000C505000000000000C505000032
:10007000C5050000C5050000C5050000C505000058
:10008000C50500007B020000C5050000C505000095
:10009000C5050000C5050000C5050000C505000038
:1000A000C5050000C5050000C5050000C505000028
:1000B000C5050000C5050000C5050000C505000018
:1000C000C5050000C5050000C5050000C505000008
:1000D000C5050000C5050000C505000000000000C2
:1000E000012110F01F029140744A40B2400942F8C9
:1000F0002010704780B5002071490880002202213D
:10010000002000F0F1F801BD80B5772000F022F961
:10011000002300220021002000F0F6F8072300222F
:100120000721072000F000F901BD80B54FF415410B
:10013000644800F019F98021624800F018F90021A4
:10014000604800F017F900215F4800F00DF9EF2139
:100150005D4800F00CF900215B4800F00BF900212C
:100160005A4800F001F9FF21584800F000F9002139
:10017000564800F0FFF801BD80B55248008850F4A1
:10018000104050490880002303224FF41651504874
:1001900000F0F4F8002201214D4800F04DF93F2114
:1001A0004B4800F04EF901BD80B5FFF7A3FFFFF704
:1001B000ABFFFFF7BAFFFFF7DFFF1120FFF790FF5C
:1001C00001BD80B50021434A1170C0B20100404812
:1001D00000F028F93F4800780028FBD001BD70B539
:1001E00004000025200000F031F90500002604E09D
:1001F000B6B2305DFFF7E5FF761CB6B2ADB2AE42E7
:10020000F6D370BD10B5A0B000246846802100F080
:1002100039F9314800780028FBD030480078694629
:10022000E4B26054641C00202B4908702B4800780D
:10023000002807D0294800780D2803D027480078E7
:100240000A28E6D1684620B010BD80B5FFF7ACFFA4
:100250002348FFF7C4FF204800780028FBD0FFF7B1
:10026000D1FFFFF7BCFF14A0FFF7B9FF1C48FFF751
:10027000B6FF002018490870EDE780B5144800F07B
:10028000E3F8184908701748007810F007000228B2
:1002900002D101200F4908701248007810F00700C1
:1002A000042807D10A4800F0C5F80C49087001205D
:1002B0000949087001BD00000D0A000000E100E0DE
:1002C00088250040006000403060004060600040D1
:1002D000005000400000002001000020030000202A
:1002E000A805000002000020064B1B889BB213F0FB
:1002F000200353F0400303430B431343014803809F
:10030000012070478825004010F0070011F003011C
:1003100050EAC10013F0070150EA41100F4908806C
:100320000F4802800120704710B410F0070454EA0F
:10033000C00411F0070054EA801412F0070054EAD8
:10034000402413F0070054EA0034064804800120DA
:1003500010BC70470149888501207047002000408B
:1003600044240040042000400180012070470171B6
:1003700001207047017201207047000070B4264CC4
:100380002488A4B214F460656D12002D0BD0022DE8
:100390000DD00AD3042D0ED00BD3062D0FD00CD3C5
:1003A000072D0ED00FE001250DE002250BE00425FE
:1003B00009E0082507E0102505E0202503E0402599
:1003C00001E08025FFE7154C2488A4B2E40700D59E
:1003D0006D00134C6E0194FBF6F494FBF1F404856C
:1003E0004FF400666D0196FBF5F50D4E754395FBD8
:1003F000F4F494FBF1F1B1F5006151F4084181840A
:100400000021017113F03C0112F00302114301734A
:10041000007D70BC70470000042000404424004070
:100420000024F400027D920602D50170012000E054
:100430000020704700787047002A00D00174007EC9
:100440007047017101207047007A704700F1010385
:10045000810704D010F8011B89B18107FAD1026825
:10046000B2F10131914311F0803F04BF50F8042FE5
:10047000F6E710F8011B11B110F8011BFBE7C01AD9
:1004800070470000002200F001B80000401810F092
:10049000030308D0C91A1FD3DB0748BF00F8012D9A
:1004A00028BF20F8022D130030B414461546103929
:1004B00028BF20E93C00FAD8490728BF20E90C00F2
:1004C00048BF40F8042D890028BF20F8022D48BFFE
:1004D00000F8012D30BC7047C91818BF00F8012D75
:1004E000CB0728BF00F8012D704719E050F8041B16
:1004F000CB0744BFA9F101035918121F0023042A96
:1005000041F8043BF9D25FEA827C0B4604D54FF0F8
:10051000000CA1F800C09B1CD10744BF002119703A
:1005200050F8042B002AE1D17047000010B50749AC
:1005300079441831064C7C44163404E00A68081DDE
:10054000511888470146A142F8D110BD08000000AB
:100550001400000097FFFFFF0400000000000020CF
:100560000000000000F00BF8002801D0FFF7DEFFCC
:100570000020C046C046FFF768FE00F002F80120E8
:10058000704700F001B800000746384600F002F856
:10059000FBE7000080B5C046C046024A11001820A3
:1005A000ABBEFBE726000200496E707574205465EF
:1005B00078740D0A00000000C046C046C046C04620
:0805C000FFF7D0FFFFF7FEBFBB
:04000005000005B939
:00000001FF
