:1000000048040020190700003D0700003D070000DC
:100010003D0700003D0700003D0700000000000014
:100020000000000000000000000000003D0700008C
:100030003D070000000000003D0700003D070000F4
:100040003D0700003D0700003D0700003D070000A0
:100050003D0700003D0700003D0700003D07000090
:100060003D0700003D070000000000003D070000C4
:100070003D0700003D0700003D0700003D07000070
:100080003D0700008F0200003D0700003D07000013
:100090003D0700003D0700003D0700003D07000050
:1000A0003D0700003D0700003D0700003D07000040
:1000B0003D0700003D0700003D0700003D07000030
:1000C0003D0700003D0700003D0700003D07000020
:1000D0003D0700003D0700003D0700000000000054
:1000E000012110F01F0291407F4A40B2400942F8BE
:1000F0002010704780B500207C4908800022022132
:10010000002000F011F901BD80B5772000F042F920
:10011000002300220021002000F016F9072300220E
:100120000721072000F020F901BD80B54FF41541EB
:100130006F4800F039F980216D4800F038F900214E
:100140006B4800F037F900216A4800F02DF9EF21E3
:10015000684800F02CF90021664800F02BF90021D6
:10016000654800F021F9FF21634800F020F90021E3
:10017000614800F01FF901BD80B55D48008850F46A
:1001800010405B490880002303224FF416515B485E
:1001900000F018F900220121584800F071F93F21C0
:1001A000564800F072F901BD00E0401E0028FCD165
:1001B000704780B5FFF79EFFFFF7A6FFFFF7B5FF7B
:1001C000FFF7DAFF1120FFF78BFF01BD70B50400C8
:1001D0000025200000F05EF9050000260CE000205C
:1001E00047490870B6B2315D444800F03FF94448D1
:1001F00000780028FBD0761CB6B2ADB2AE42EED38A
:1002000070BD10B582B0002400208DF8000034A12C
:100210003C4800F05BF99DF8000010F0070004284E
:1002200006D1364800F02AF93649E4B26054641C1D
:10023000E4B2032CEFD013BD80B53349314800F050
:1002400045F9FFF7B6FF2F48FFF7C0FF25A0FFF7DE
:10025000BDFF2E48FFF7A8FF2D4800780028F5D0F5
:100260002C48FFF7B3FFFFF7CCFF2648FFF7AEFFA0
:100270001BA1244800F02AF92349224800F026F95E
:100280002048FFF7A3FF002021490870DEE780B572
:100290002148FFF79BFF194800F0FAF81F49087042
:1002A0001F48FFF793FF1D48007810F00700022851
:1002B00002D10120124908701848007810F0070098
:1002C000042802D10120124908701448007810F067
:1002D0000700062802D101201249087001BD000064
:1002E000000000004848480000E100E08825004088
:1002F00000600040306000406060004000500040FE
:10030000400000200000002008070000A086010037
:1003100041000020240700002C07000043000020BB
:100320003407000042000020064B1B889BB213F0EC
:10033000200353F0400303430B431343014803805E
:10034000012070478825004010F0070011F00301DC
:1003500050EAC10013F0070150EA41100F4908802C
:100360000F4802800120704710B410F0070454EACF
:10037000C00411F0070054EA801412F0070054EA98
:10038000402413F0070054EA00340648048001209A
:1003900010BC70470149888501207047002000404B
:1003A0004424004004200040018001207047017176
:1003B000012070470172012070470268531C0360DE
:1003C0001170704770B4264C2488A4B214F4606590
:1003D0006D12002D0BD0022D0DD00AD3042D0ED09E
:1003E0000BD3062D0FD00CD3072D0ED00FE0012517
:1003F0000DE002250BE0042509E0082507E01025A3
:1004000005E0202503E0402501E08025FFE7154CAD
:100410002488A4B2E40700D56D00134C6E0194FB50
:10042000F6F494FBF1F404854FF400666D0196FB3D
:10043000F5F50D4E754395FBF4F494FBF1F1B1F530
:10044000006151F4084181840021017113F03C01E5
:1004500012F0030211430173007D70BC704700006D
:1004600004200040442400400024F400027D920651
:1004700002D50170012000E000207047007870472D
:10048000002A00D00174007E70470171012070477E
:10049000007A704700F10103810704D010F8011BB6
:1004A00089B18107FAD10268B2F10131914311F0AB
:1004B000803F04BF50F8042FF6E710F8011B11B17C
:1004C00010F8011BFBE7C01A704700000CB41CB504
:1004D000044604A801900A46009401AB6946074807
:1004E0007844183000F018F8009A002111700028A4
:1004F0005CBF0098001B16BC5DF80CFBBFFEFFFF45
:1005000070B504461E000846154604D015F8011BB8
:10051000A047761EFAD170BD2DE9F04784B082461F
:10052000894614461F46E84607E00123224649460D
:100530005046FFF7E5FF8146641C207810B904B0EF
:10054000BDE8F0872528F0D16078A41C2528014655
:1005500018D058285CD063280ED0642818BF6928AA
:1005600014D06F2854D0702858D073285DD07528C7
:1005700018BF78284CD0E0E73868386050F8041B82
:100580003860C9B24846D0478146D6E738683860F7
:1005900050F8045B3860002D03D52D214846D04724
:1005A000814664206F2808BF082205D040F0200152
:1005B000782914BF0A2210220B216428AC4603D1EB
:1005C000002D48BFCCF1000CBCFBF2F502FB15CCB2
:1005D0000CF130065FFA86FC4B1EBCF13A0FA4BF4B
:1005E000A0F15106B44403F808C019465FEA050CAF
:1005F00001D00129E8DA68460D184846D1F10B0907
:10060000C2D015F8011BD047B9F10109F9D1BBE7F8
:100610003968396051F8045B3960C3E7386838607D
:1006200050F8045B38607820BCE73868386050F8D0
:10063000045B38602846FFF72DFF06004846A3D02C
:1006400015F8011BD047761EFAD19DE719E050F846
:10065000041BCB0744BFA9F101035918121F002343
:10066000042A41F8043BF9D25FEA827C0B4604D5A8
:100670004FF0000CA1F800C09B1CD10744BF002123
:10068000197050F8042B002AE1D1704710B50749C2
:1006900079441831064C7C44163404E00A68081D7D
:1006A000511888470146A142F8D110BD080000004A
:1006B0001400000099FFFFFF44000000000000202C
:1006C0000000000000F00BF8002801D0FFF7DEFF6B
:1006D0000020C046C046FFF7AFFD00F002F8012041
:1006E000704700F001B800000746384600F002F8F5
:1006F000FBE7000080B5C046C046024A1100182042
:10070000ABBEFBE726000200496E7075742054658D
:1007100078740D0A00000000C046C046C046C046BE
:10072000FFF7D0FF4D4D4D4D4D4D000061616161B2
:10073000000000006262626200000000FFF7FEBF7E
:0400000500000719D7
:00000001FF
