:10000000180400202505000031050000310500001E
:10001000310500003105000031050000000000003E
:10002000000000000000000000000000310500009A
:10003000310500000000000031050000310500001E
:1000400031050000310500003105000031050000D8
:1000500031050000310500003105000031050000C8
:1000600031050000310500000000000031050000EE
:1000700031050000310500003105000031050000A8
:10008000310500005F02000031050000310500006D
:100090003105000031050000310500003105000088
:1000A0003105000031050000310500003105000078
:1000B0003105000031050000310500003105000068
:1000C0003105000031050000310500003105000058
:1000D000310500003105000031050000000000007E
:1000E000012110F01F0291406C4A40B2400942F8D1
:1000F0002010704780B50020694908800022022145
:10010000002000F0E1F801BD80B5772000F012F981
:10011000002301220021022000F0E6F8072300223C
:100120000721072000F0F0F801BD80B54FF4104121
:100130005C4800F009F9A4215A4800F008F90021B0
:10014000584800F007F90021574800F0FDF8EB216E
:10015000554800F0FCF80021534800F0FBF800215E
:10016000524800F0F1F8FF21504800F0F0F800216B
:100170004E4800F0EFF801BD80B54A48008850F4C1
:10018000104048490880082303224FF496614848EC
:1001900000F0E6F800220121454800F03FF9032174
:1001A000434800F040F901BD80B5FFF7A3FFFFF71A
:1001B000ABFFFFF7BAFFFFF7DFFF1120FFF790FF5C
:1001C0000E20FFF78DFF01BD80B50021394A117067
:1001D000C0B20100364800F017F936480078002810
:1001E000FBD001BD70B504000025200000F020F90F
:1001F0000500002604E0B6B2305DFFF7E5FF761C8F
:10020000B6B2ADB2AE42F6D370BD00202A4909782D
:100210000029FBD029490978294AC0B28154401CE1
:100220000021254A117025490978FF29EED124487B
:10023000704780B5FFF7B8FF05211A4800F08DF828
:100240001D4800780028FBD01020FFF7BDFFFFF706
:10025000DCFFFFF7C7FF002017490870F0E780B503
:10026000134800F0E3F8174908701648007810F0BA
:100270000700022802D101200E49087011480078B9
:1002800010F00700042807D1094800F0C5F80B4911
:10029000087001200849087001BD000000E100E07D
:1002A00088250040006000403060004060600040F1
:1002B000005000401400002015000020170000200E
:1002C0000000002016000020064B1B889BB213F094
:1002D000200353F0400303430B43134301480380BF
:1002E000012070478825004010F0070011F003013D
:1002F00050EAC10013F0070150EA41100F4908808D
:100300000F4802800120704710B410F0070454EA2F
:10031000C00411F0070054EA801412F0070054EAF8
:10032000402413F0070054EA0034064804800120FA
:1003300010BC7047014988850120704700200040AB
:1003400044240040042000400180012070470171D6
:10035000012070470172012070470177007F7047CC
:1003600070B4264C2488A4B214F460656D12002D7C
:100370000BD0022D0DD00AD3042D0ED00BD3062D99
:100380000FD00CD3072D0ED00FE001250DE0022574
:100390000BE0042509E0082507E0102505E02025ED
:1003A00003E0402501E08025FFE7154C2488A4B236
:1003B000E40700D56D00134C6E0194FBF6F494FB3A
:1003C000F1F404854FF400666D0196FBF5F50D4ED2
:1003D000754395FBF4F494FBF1F1B1F5006151F430
:1003E000084181840021017113F03C0112F00302E5
:1003F00011430173007D70BC704700000420004071
:10040000442400400024F400027D920602D50170CD
:10041000012000E00020704700787047002A00D0DB
:100420000174007E7047017101207047007A7047A7
:1004300000F10103810704D010F8011B89B1810785
:10044000FAD10268B2F10131914311F0803F04BF4B
:1004500050F8042FF6E710F8011B11B110F8011B3A
:10046000FBE7C01A704719E050F8041BCB0744BFE4
:10047000A9F101035918121F0023042A41F8043B73
:10048000F9D25FEA827C0B4604D54FF0000CA1F84C
:1004900000C09B1CD10744BF0021197050F8042BE9
:1004A000002AE1D17047000010B50749794418319E
:1004B000064C7C44163404E00A68081D511888472D
:1004C0000146A142F8D110BD080000001400000050
:1004D00097FFFFFF18000000000000200000000050
:1004E00000F00BF8002801D0FFF7DEFF0020C04627
:1004F000C046FFF79EFE00F002F80120704700F0B2
:1005000001B800000746384600F002F8FBE700009B
:1005100080B5C046C046024A11001820ABBEFBE7BA
:1005200026000200C046C046C046C046FFF7D8FFBE
:04053000FFF7FEBF14
:0400000500000525CD
:00000001FF
